:1000000001308A00142900000A108A100A118207A0
:1000100028340C340134063424308400831300085F
:10002000031920280130F800F701F70B1528F80B09
:1000300014284A30F700F70B1B281E28800B1228C3
:1000400008002818252808122628081683160812E2
:100050008312A8182D2888122E2888168316881235
:100060008312281935280813362808178316081311
:100070008312A8193D2888133E28881783168813F1
:1000800000008312091583160911462883120911ED
:100090008316091183120800A9018316081600307F
:1000A0008312081A0130A9048316881600308312BF
:1000B000881A0130F7000310F70D7708A90483169A
:1000C000081700308312081B0130F700F70DF70DF9
:1000D000FC30F7057708A9048316881700308312CF
:1000E000881B0130F700F70DF70DF70DF830F70515
:1000F0007708A9042908F800080083160812881256
:100100000813881309110910891083120910831626
:10011000091083128910831689108312091183161E
:1001200009110F308312A4000C200130A300230812
:10013000033C031CA3280330A80021200530A400A1
:100140000C20A30A97280230A80021200530A40023
:100150000C20A3012308033C031C112923080420BD
:10016000A400A5012408A60083160911091089100E
:1001700083120910831609100816881608178817A5
:1001800083128914831689100000831209158316BF
:100190000911000083124C207808A8000911831669
:1001A000091100008312091583160911000083123A
:1001B0004C207808A700091183160911081288122B
:1001C000081388138312280EF700F030F70577081C
:1001D0002704F8007808A700A71FF0288316BC287A
:1001E000A508031DF5280910F6280914831609101F
:1001F00000008312891083168910000083120911F0
:10020000831609118312260EA7000F30A7052708B1
:10021000A800212026080F39A700A8002120A30A42
:10022000AA288A110A123F29FF30A00083161F1442
:100230009F141F159F1107309C0083131F308305E7
:100240001F1383121F139F1783169F1383121F14EC
:1002500083161F109F141F159F150030F8000638D5
:10026000831292000030831692008312201120081E
:1002700083168700831207110C3097007D28A20196
:100280000130A1002208F9002108F800F90CF80C4F
:10029000F90CF80CF90C78089500F90C790C303948
:0E02A000F7001708CF39770497004229630052
:02400E00313F40
:00000001FF
;PIC16F877A
;CRC=EF13  CREATED="21-Nis-22 22:12"
